:100000000C949C0F0C94E50F0C94E50F0C94E50FE9
:100010000C94E50F0C94E50F0C94E50F0C94E50F90
:100020000C94E50F0C94E50F0C9475340C944D353D
:100030000C94B1260C94E50F0C94E50F0C94E50F8D
:100040000C94E50F0C94E50F0C94E50F0C94E50F60
:100050000C94E50F0C9423270C94E50F0C94E50FFA
:100060000C94E50F0C94E50F0C94E50F0C94E50F40
:100070000C94E50F0C94E50F0C94E50F0C94E50F30
:100080000C94E50F0C94E50F0C94E50F0C94E50F20
:100090000C94E50F0C94E50F1E00165C2B61E2003A
:1000A0002C00035114001F0000000000000000009D
:1000B0000000000000000000000000000000200020
:1000C0001A00040012591D0016000800210000004B
:1000D0000000000000000000000000000000000020
:1000E000000000002200150007001B0006000900A8
:1000F00017002300000000000000000000000000C6
:100100000000000000000000000024001C000A00A5
:10011000190005000B001800250000000000000079
:1001200000000000000000000000000000000000CF
:1001300026000C000D00110010000E001200270018
:1001400000000000000000000000000000000000AF
:100150000000000000002E0213000F0036003700E0
:1001600033021F022D00000000000000000000000C
:100170000000000000000000000000003100250227
:100180003300380002512E0052004A0000000000E7
:10019000000000000000000000000000000000005F
:1001A00000004C0028004F0051003A003C003E0087
:1001B00040000000000000000000000000000000FF
:1001C000000000000000000000000000000000002F
:1001D00000000000000000002A00000000000000F5
:1001E000000000000000000000000000000000000F
:1001F00000000000000000000000000000000000FF
:10020000620060005A005C005E0000000000000018
:1002100000000000000000000000000000000000DE
:1002200000000000000000000000000000000000CE
:1002300063005F005B0059006100010001000100E4
:100240000100010000000100340200000000000075
:10025000000000000000000000000000000000009E
:100260000100010001000100010001000100010086
:10027000000000000000000000000000000000007E
:100280000000000000000100010001000100010069
:100290000100010024020000000000000000000036
:1002A000000000000000000000000000085D0100E8
:1002B0000100010001000100010026000000000013
:1002C000000000000000000000000000000000002E
:1002D00000002700010001000100010001000100F1
:1002E00023020000000000000000000000000000E9
:1002F00000000000000000000100010001000100FA
:100300000100095D01000100000000000000000084
:1003100000000000000000000000000000000100DC
:1003200001000A5D01000100010001000100000060
:1003300000000000000000000000000000000000BD
:1003400000000000010001000100010001000100A7
:10035000010001000000000000000000000000009B
:10036000000000000000000000000000000000008D
:10037000000000000000000000000100000000007C
:10038000000000000000000000000000000000006D
:10039000000000000000000000000000000000005D
:1003A0000000010001000100010001000000000048
:1003B000000000000000000000000000000000003D
:1003C000000000000000000000000000000000002D
:1003D0000000010001000100010001001E023502C1
:1003E000010001002C020000140234020000000091
:1003F00000000000000000000000000000000000FD
:10040000000020021A02040201001D021602080266
:1004100021020000000000000000000000000000B9
:1004200000000000000000002202150207021B026B
:10043000060209021702240200000000000000006A
:100440000000000000000000000000000000340078
:100450001C020A02190205020B0218022602000001
:10046000000000000000000000000000000000008C
:100470000000000027020C020D02110210020E0201
:100480001202230200000000000000000000000033
:1004900000000000000000000000010013020F0235
:1004A000360237022F0001002D020000000000007C
:1004B000000000000000000000000000000000003C
:1004C00031020100300038020100010052024A02EC
:1004D000000000000000000000000000000000001C
:1004E0000000000000004C0228025000520014508E
:1004F00015501650185000000000000000000000C9
:1005000000000000000000000000000000000000EB
:100510000000000000000000000000002A020000AF
:1005200000000000000000000000000000000000CB
:1005300000000000000000000000000000000000BB
:1005400000000000010001000100010001000000A6
:10055000000000000000000000000000000000009B
:10056000000000000000000000000000000000008B
:1005700000000000010001000100010001003A003C
:100580003500E0000100010001004B003B000000CD
:10059000000000000000000000000000000000005B
:1005A000000000003C00520050000100010051001A
:1005B0004E003D00000000000000000000000000B0
:1005C000000000000000000000003E0001004F009D
:1005D0000100B200010001003F0000000000000027
:1005E000000000000000000000000000000000000B
:1005F0004000010001000100010001004B0041002A
:1006000000000000000000000000000000000000EA
:1006100000000000000042005200500001000100F4
:1006200051004E00430000000000000000000000E8
:100630000000000000000000000000004400460030
:100640004F00AA00A9002F0247004500000000004B
:10065000000000000000000000000000000000009A
:100660000000010053003002A800010001004B000F
:100670004D0000000000000000000000000000002D
:10068000000000000000000049000100500052007E
:100690003B003D003F004100000000000000000062
:1006A000000000000000000000000000000000004A
:1006B00000000000000000000000000000004E00EC
:1006C000000000000000000000000000000000002A
:1006D000000000000000000000000000000000001A
:1006E0000000000000000100010001000100010005
:1006F00000000000000000000000000000000000FA
:1007000000000000000000000000000000000000E9
:1007100000000000000001000100010001000100D4
:100720001E0035002B0029002C00B15914001F00B9
:1007300000000000000000000000000000000000B9
:1007400000000000000020001A000400E1001D006D
:10075000160008002100000000000000000000005A
:100760000000000000000000000000002200150052
:1007700007001B000600090017002300000000000E
:100780000000000000000000000000000000000069
:10079000000024001C000A00190005000B001800CE
:1007A0002500000000000000000000000000000024
:1007B000000000000000000026000C000D001100E9
:1007C00010000E00120027000000000000000000D2
:1007D00000000000000000000000000000002D00EC
:1007E00013000F003600370033002F002E000000EA
:1007F00000000000000000000000000000000000F9
:10080000000000004900300034003800E5003100ED
:100810004C004A0000000000000000000000000042
:10082000000000000000000000002A0028004F0027
:1008300051003A003C003E00400000000000000073
:1008400000000000000000000000000000000000A8
:100850000000000000000000000000000000000098
:100860004B0000000000000000000000000000003D
:100870000000000000000000000000000000000078
:100880000000000000000000010001000100010064
:100890000100000000000000000000000000000057
:1008A0000000000000000000000000000000000048
:1008B0000000000000000000010001000100010034
:1008C00001001E0035002B0029002C00B159140036
:1008D0001F000000000000000000000000000000F9
:1008E000000000000000000020001A000400E100E9
:1008F0001D0016000800210000000000000000009C
:1009000000000000000000000000000000002200C5
:10091000150007001B000600090017002300000057
:1009200000000000000000000000000000000000C7
:100930000000000024001C000A00190005000B0044
:10094000180025000000000000000000000000006A
:100950000000000000000000000026000C000D0058
:10096000110010000E00120027000000000000001F
:100970000000000000000000000000000000000077
:100980002D0013000F003600370033002F002E001B
:100990000000000000000000000000000000000057
:1009A0000000000000004900300034003800E5007D
:1009B000310052004A00000000000000000000006A
:1009C0000000000000000000000000002A002800D5
:1009D0004F0051003A003C003E0040000000000083
:1009E0000000000000000000000000000000000007
:1009F00000000000000000000000000000000000F7
:100A00000000500000000000000000000000000096
:100A100000000000000000000000000000000000D6
:100A200000000000000000000000010001000100C3
:100A300001000100000000000000000000000000B4
:100A400000000000000000000000000000000000A6
:100A50000000000000000000000001000100010093
:100A6000010001001E0035002B0029002C00B159A7
:100A700014001F0000000000000000000000000043
:100A80000000000000000000000020001A00040028
:100A9000E1001D0016000800210000000000000019
:100AA0000000000000000000000000000000000046
:100AB0002200150007001B00060009001700230094
:100AC0000000000000000000000000000000000026
:100AD00000000000000024001C000A0019000500AE
:100AE0000B001800250000000000000000000000BE
:100AF00000000000000000000000000026000C00C4
:100B00000D00110010000E00120027000000000070
:100B100000000000000000000000000000000000D5
:100B200000002D0013000F003600370033002F00A7
:100B30002E00000000000000000000000000000087
:100B400000000000000000004900300034003800C0
:100B5000075131004C004A00000000000000000076
:100B600000000000000000000000000000002A005B
:100B700028004F0051003A003C003E0040000000B9
:100B80000000000000000000000000000000000065
:100B90000000000000000000000000000000000055
:100BA000000000004B0000000000000000000000FA
:100BB0000000000000000000000000000000000035
:100BC0000000000000000000000000000100010023
:100BD0000100010001000000000000000000000012
:100BE0000000000000000000000000000000000005
:100BF00000000000000000000000000001000100F3
:100C0000010001000100440055002B0242002C02AB
:100C10000100140245000000000000000000000078
:100C200000000000000000000000000068001A0240
:100C3000040201001D021602080269000000000003
:100C400000000000000000000000000000000000A4
:100C500000006A00150207021B02060209021702C1
:100C60006B00000000000000000000000000000019
:100C700000000000000000006C001C020A021902C3
:100C800005020B0218026D000000000000000000C9
:100C900000000000000000000000000000006E00E6
:100CA0000C020D02110210020E021202430000009B
:100CB0000000000000000000000000000000000034
:100CC00000000000570013020F02360263003302D7
:100CD0002F0256000000000000000000000000008D
:100CE0000000000000000000000049023000340055
:100CF0003802010031023B0001000000000000004A
:100D000000000000000000000000000000000000E3
:100D10002A025800500052007000710072007300E7
:100D200000000000000000000000000000000000C3
:100D300000000000000000000000000000000000B3
:100D40000000000000004B02000000000000000056
:100D50000000000000000000000000000000000093
:100D60000000000000000000000000000000010082
:100D7000010001000100010000000000000000006F
:100D80000000000000000000000000000000000063
:100D90000000000000000000000000000000010052
:100DA00001000100010001001E0029002B00350098
:100DB0002C00544914001F00000000000000000037
:100DC0000000000000000000000000000000200003
:100DD0001A000400A2591D0016000800210000009E
:100DE0000000000000000000000000000000000003
:100DF000000000002200150007001B00060009008B
:100E000017002300000000000000000000000000A8
:100E10000000000000000000000024001C000A0088
:100E2000190005000B00180025000000000000005C
:100E300000000000000000000000000000000000B2
:100E400026000C000D00110010000E0012002700FB
:100E50000000000000000000000000000000000092
:100E60000000000000002D0013000F0036003700C6
:100E700033002F002E0000000000000000000000E2
:100E800000000000000000000000000049003000E9
:100E900034003800A25931004C004A000000000024
:100EA0000000000000000000000000000000000042
:100EB00000002A0028004F0051003A003C003E008C
:100EC00040000000000000000000000000000000E2
:100ED0000000000000000000000000000000000012
:100EE00000000000000000002A00000000000000D8
:100EF00000000000000000000000000000000000F2
:100F000000000000000000000000000000000000E1
:100F100001000100010001000100000000000000CC
:100F200000000000000000000000000000000000C1
:100F300000000000000000000000000000000000B1
:100F40000100010001000100010059000100010041
:100F500001000100010040005A00000000000000F4
:100F60000000000000000000000000000000000081
:100F70005B0041006C00010052006D0042005C000B
:100F80000000000000000000000000000000000061
:100F90000000000000005D0043006E005000E00013
:100FA000700044005E00000000000000000000002F
:100FB0000000000000000000000000005F0045008D
:100FC0007100E4004D007200680060000000000045
:100FD0000000000000000000000000000000000011
:100FE0000000610069007300E20048004B006A00E5
:100FF000620000000000000000000000000000008F
:1010000000000000000000003A006B004E000100EC
:10101000630001003F003B000000000000000000F2
:1010200000000000000000000000000000003C0084
:101030003E0001000100010001000100010000006C
:1010400000000000000000000000000000000000A0
:10105000000000000100010001000100010001008A
:10106000010001000000000000000000000000007E
:101070000000000000000000000000000000000070
:101080000000000000000000000010500000000000
:101090000000000000000000000000000000000050
:1010A0000000000000000000000000000000000040
:1010B000000001000100010001000100000000002B
:1010C0000000000000000000000000000000000020
:1010D0000000000000000000000000000000000010
:1010E00000000100010001000100010001000100F9
:1010F00001000100010001000100010000000000EA
:1011000000000000000000000000000000000000DF
:1011100000000100010001000100010001000100C8
:1011200001000000000000000000000000000000BE
:1011300000000000000000000100010001000100AB
:10114000010001000100010000000000000000009B
:10115000000000000000000000000000000001008E
:101160000100010001000100010001000100000078
:10117000000000000000000000000000000000006F
:101180000000000001000100010001000100010059
:1011900001002B0000000000000000000000000023
:1011A000000000000000000000000100010001003C
:1011B000010001000100010001000000000000002A
:1011C000000000000000000000000000000000001F
:1011D0003D000100010001000100010001000100CB
:1011E00000000000000000000000000000000000FF
:1011F00000000000000001000100010001000100EA
:1012000001000100010000000000000000000000DB
:1012100000000000000000000000000000000000CE
:1012200000000000000000000000000001000000BD
:1012300000000000000000000000000000000000AE
:10124000000000000000000000000000000000009E
:101250000000000001000100010001000100000089
:10126000000000000000000000000000000000007E
:10127000000000000000000000000000000000006E
:101280000000000001000100010001000100010058
:101290000100010001000100010001000100000047
:1012A000000000000000000000000000000000003E
:1012B0000000000001000100010001000100010028
:1012C000010001000000000000000000000000001C
:1012D000000000000000000000000100010001000B
:1012E00001000100010001000100000000000000F9
:1012F00000000000000000000000000000000000EE
:1013000001000100010001000100010001000100D5
:1013100000000000000000000000000000000000CD
:1013200000000000000001000100010001000100B8
:1013300001000100010000000000000000000000AA
:10134000000000000000000000000000010001009B
:101350000100010001000100010001000000000087
:10136000000000000000000000000000000000007D
:101370000000010001000100010001000100010066
:10138000010000000000000000000000000000005C
:101390000000000000000000010001000100010049
:1013A0000100010001000100000000000000000039
:1013B000000000000000000000000000000000002D
:1013C00000000000000000000000000000001050BD
:1013D000000000000000000000000000000000000D
:1013E00000000000000000000000000000000000FD
:1013F00000000000000001000100010001000100E8
:1014000000000000000000000000000000000000DC
:1014100000000000000000000000000000000000CC
:1014200000000000000001000100010001000100B7
:1014300044454255473A2064697361626C65642E85
:101440000A0044454255473A20656E61626C656406
:101450002E0A000A00253033326C62003A20002543
:10146000303258000A722F6320303132333435362F
:1014700037383941424344454630313233343536CA
:101480003738394142434445460A000A0025303284
:101490005820006B6579626F6172645F7265706F6E
:1014A00072743A20000A0025303258006B65796268
:1014B0006F6172645F7365745F6C65643A200029C4
:1014C0000A002575002F002575005D2800256400A1
:1014D0002000256400200025640020002564007C95
:1014E0000025303258006D6F7573656B6579205B30
:1014F00062746E7C782079207620685D2872657031
:101500002F61636C293A205B006D6B5F77686565BE
:101510006C5F74696D655F746F5F6D6178203D20ED
:1015200025640A006D6B5F776865656C5F6D617837
:101530005F7370656564203D2025640A006D6B5FF4
:1015400074696D655F746F5F6D6178203D202564FF
:101550000A006D6B5F6D61785F7370656564203D37
:101560002025640A006D6B5F696E74657276616C2C
:10157000203D2025640A006D6B5F64656C617920F5
:101580003D2025640A006D6B5F776865656C5F744C
:10159000696D655F746F5F6D6178203D2025640A19
:1015A000006D6B5F776865656C5F6D61785F737008
:1015B000656564203D2025640A006D6B5F74696D6C
:1015C000655F746F5F6D6178203D2025640A006D52
:1015D0006B5F6D61785F7370656564203D20256485
:1015E0000A006D6B5F696E74657276616C203D20D8
:1015F00025640A006D6B5F64656C6179203D202570
:10160000640A000A00257500363A20776865656C23
:101610005F74696D655F746F5F6D61783A20000A71
:1016200000257500353A20776865656C5F6D6178D7
:101630005F73706565643A20000A00257500343ACE
:101640002074696D655F746F5F6D61783A20000A80
:1016500000257500333A206D61785F7370656564AD
:101660003A20000A00257500323A20696E746572CE
:1016700076616C286D73293A20000A0025750031C7
:101680003A2064656C6179282A31306D73293A20DB
:10169000000A092D2056616C756573202D0A004DD6
:1016A0003E004D25643E20003F0073657420646554
:1016B0006661756C740A00433E2000776865726548
:1016C0002064656C74613A20637572736F723D2596
:1016D000642C20776865656C3D25640A5365652038
:1016E000687474703A2F2F656E2E77696B69706518
:1016F0006469612E6F72672F77696B692F4D6F7503
:1017000073655F6B6579730A000A092D204D6F754B
:1017100073656B6579202D0A4553432F713A097122
:101720007569740A313A0964656C6179282A313027
:101730006D73290A323A09696E74657276616C2894
:101740006D73290A333A096D61785F73706565645A
:101750000A343A0974696D655F746F5F6D61780A68
:10176000353A09776865656C5F6D61785F737065A0
:1017700065640A363A09776865656C5F74696D65FA
:101780005F746F5F6D61780A0A703A097072696EF2
:10179000742076616C7565730A643A097365742008
:1017A00064656661756C74730A75703A092B310A49
:1017B000646F776E3A092D310A706775703A092B9C
:1017C00031300A7067646F776E3A092D31300A0A3A
:1017D0007370656564203D2064656C7461202A2007
:1017E0006D61785F7370656564202A20287265706A
:1017F000656174202F2074696D655F746F5F6D6122
:1018000078290A003F004D3E2000433E20004C2531
:10181000640A0074696D65725F72656164333228B1
:10182000293A202530346C580A006B6579626F6163
:1018300072645F69646C653A2025580A006B6579AB
:10184000626F6172645F70726F746F636F6C3A2065
:1018500025580A00686F73745F6B6579626F6172F7
:10186000645F6C65647328293A2025580A000A09C8
:101870002D20537461747573202D0A004743433A39
:1018800020382E332E30204156522D4C4942433AB7
:1018900020322E302E30204156525F415243483A7A
:1018A0002061767235310A004F5054494F4E533AF9
:1018B000204C554641204D4F5553454B45592045E9
:1018C000585452414B455920434F4E534F4C45209D
:1018D000434F4D4D414E4420343039360A00425575
:1018E000494C443A2022302E372E39372D312D677E
:1018F00064396366366322202831383A30343A310D
:1019000030204175672031302032303230290A00D2
:101910005649443A20307846454544284B2D726E4E
:1019200069766F726F29205049443A2030783630FA
:101930003630284B65796D6D6F646F72652D363466
:1019400029205645523A203078303030310A004450
:101950004553433A204120432D3634206B6579624C
:101960006F617264207769746820504320616E64EF
:1019700020456D756C61746F7220436F6D7061747A
:101980006962696C6974790A000A092D20566572CA
:1019900073696F6E202D0A000A092D20436F6E7344
:1019A0006F6C65202D0A4553432F713A0971756993
:1019B000740A6D3A096D6F7573656B65790A000A73
:1019C000092D204D61676963202D0A443A09446559
:1019D000627567204D65737361676520546F676733
:1019E0006C650A583A094D617472697820446562E1
:1019F0007567204D6F646520546F67676C65202D97
:101A00002053686F77206B657970726573736573A7
:101A100020696E206D617472697820677269640A4A
:101A20004B3A094B6579626F617264204465627557
:101A30006720546F67676C65202D2053686F77208F
:101A40006B65797072657373207265706F72740A5A
:101A50004D3A094465627567204D6F757365205472
:101A60006F67676C650A563A0956657273696F6EDF
:101A70000A533A095374617475730A433A0941630E
:101A800074697661746520436F6E736F6C65204D69
:101A90006F64650A46312D4631303A0953776974CF
:101AA000636820746F204C6179657220302D392075
:101AB00028463130203D204C30290A302D393A0952
:101AC00053776974636820746F204C617965722064
:101AD000302D390A47524156453A095377697463A4
:101AE0006820746F204C6179657220302028616C09
:101AF0007465726E617465290A423A094A756D709F
:101B000020746F20426F6F746C6F616465720A4558
:101B100053433A094A756D7020746F20426F6F7499
:101B20006C6F616465722028616C7465726E61749B
:101B300065290A453A095072696E7420454550522C
:101B40004F4D2053657474696E67730A4253504158
:101B500043453A09436C65617220454550524F4DEB
:101B60000A000A002575002E6E6B726F3A20000A7B
:101B7000002575002E737761705F6261636B736C13
:101B80006173685F6261636B73706163653A2000C3
:101B90000A002575002E737761705F677261766544
:101BA0005F6573633A20000A002575002E6E6F5F33
:101BB0006775693A20000A002575002E73776170F9
:101BC0005F72616C745F726775693A20000A002564
:101BD00075002E737761705F6C616C745F6C6775F4
:101BE000693A20000A002575002E737761705F72D4
:101BF00063746C5F726775693A20000A002575008E
:101C00002E737761705F6C63746C5F6C6775693A93
:101C100020000A002575002E636170736C6F636B82
:101C20005F746F5F636F6E74726F6C3A20000A00AE
:101C30002575002E737761705F636F6E74726F6CC1
:101C40005F636170736C6F636B3A20000A0025302C
:101C50003258006B65796D61705F636F6E6669679E
:101C60002E7261773A20000A002575002E6D6F757F
:101C700073653A20000A002575002E6B6579626F46
:101C80006172643A20000A002575002E6D6174723D
:101C900069783A20000A002575002E656E61626C35
:101CA000653A20000A002530325800646562756785
:101CB0005F636F6E6669672E7261773A20000A0073
:101CC00025750064656661756C745F6C6179657219
:101CD0003A20003F000A6D6F7573653A206F6666A3
:101CE0000A000A6D6F7573653A206F6E0A000A6B01
:101CF0006579626F6172643A206F66660A000A6BEA
:101D00006579626F6172643A206F6E0A000A6D61D4
:101D1000747269783A206F66660A000A6D6174729F
:101D200069783A206F6E0A000A64656275673A2026
:101D30006F66660A000A64656275673A206F6E0A0C
:101D4000000A0A4A756D70696E6720746F20626FB1
:101D50006F746C6F616465722E2E2E2000433E20DE
:101D600000436C656172696E6720454550524F4D66
:101D70000A006565636F6E6669673A0A005B735DAA
:101D8000004B6579626F6172642073746172742EA6
:101D90000A005B575D005B535D005B525D005B4476
:101DA0005D005B435D000403300000001C034B003A
:101DB000650079006D006D006F0064006F007200B7
:101DC00065002D0036003400000014034B002D0088
:101DD00072006E00690076006F0072006F000000F4
:101DE0000403090409025B00030100A0FA090400CE
:101DF0000001030101000921110100012240000737
:101E000005810308000A090401000103000000091C
:101E100021110100012285000705820320000A0923
:101E20000402000203000000092111010001222226
:101E300000070583032000010705030320000112AA
:101E400001100100000008EDFE60600100010203C6
:101E5000010631FF0974A1010975150026FF0095DF
:101E600020750881020976150026FF009520750867
:101E70009102C005010902A10185020901A1000525
:101E8000091901290515002501950575018102959E
:101E900001750381010501093009311581257F95FF
:101EA000027508810609381581257F95017508811D
:101EB00006050C0A38021581257F950175088106F3
:101EC000C0C005010980A10185031A81002A830091
:101ED000160100260300950175108100C0050C094C
:101EE00001A10185041A01002A9C02160100269C0A
:101EF00002950175108100C005010906A1010507C1
:101F000019E029E715002501950875018102950161
:101F1000750881010507190029FF150026FF0095A6
:101F200006750881000508190129059505750191B7
:101F300002950175039101C011241FBECFEFD0E2BD
:101F4000DEBFCDBF04B603FE27C08091E4029091AE
:101F5000E502A091E602B091E7028730904BA740DE
:101F6000B04BD1F41092E4021092E5021092E60216
:101F70001092E70214BE84B7877F84BF0FB6F8942F
:101F8000A895809160008861809360001092600045
:101F90000FBEE0E0F8EF099511E0A0E0B1E0E8E65F
:101FA000FFE600E00BBF02C007900D92AA34B10714
:101FB000D9F722E0AAE4B1E001C01D92A43EB20725
:101FC000E1F70E949E310C9481370C940000FF933E
:101FD000EF93E0914A01F0914B01309709F0099598
:101FE000EF91FF910895FC018591803011F0EFDFB2
:101FF000FBCF0895FF27E0E230E247FF0CC0419598
:1020000097FF09C0EDE26095709580959095611DF0
:10201000711D811D911D27FF02C0219530E350E203
:10202000AA27660F771F881F991FAA1FA41710F0F1
:10203000A41B63955A95A9F7AA3008F0A95FA05D83
:10204000AF93F395611571058105910541F7ED3267
:1020500011F4EF93F395F21718F43F93F395FBCF38
:102060008F91B5DFFA95E1F70895E991F99185919E
:10207000803021F0853219F0AADFF9CF089520E0F1
:10208000E89455915532C1F3503311F46894559149
:102090005A3348F4505390F3220F022E220F220F8E
:1020A000200D250FF4CF0EF4219589919991533687
:1020B00019F3533729F1533559F1BC018827992772
:1020C000E8945C3621F4899199916894559154363D
:1020D00039F446EF7EF077FF0DC08FEF9FEF0AC017
:1020E00055374AE039F0583540E121F0523642E0A8
:1020F00009F00895FF93EF937DDFEF91FF91B7CF44
:10210000FF93EF93FC0181918030B9F360DFFBCF47
:10211000FF93EF9368DFF1CFDF93CF93CDB7DEB7B7
:102120002596A3DFCF91DF910895CF93FB018930EE
:102130002DE59207E1F08A302DE5920711F1C1E01B
:1021400088309D4569F4C281CC2369F081EE0E94FC
:102150007C1B84E30E948F1A81EE0E948F1AC0E0DC
:102160008C2FCF91089584E30E947C1BF9CFC2810C
:10217000CC2329F081EE0E947C1B8FE2EBCF8FE213
:10218000F3CFC281CC2329F081EE0E947C1B80E337
:10219000E1CF80E3E9CF259A269A249A2D9A2E98AA
:1021A0002C9A0895CF92DF92EF92FF926B017C01FF
:1021B0000E94DA24893060F4E82FF0E0ED57F84C03
:1021C0000C9422372D9A2E980EC02D9A2E982C986A
:1021D000C701B601FF90EF90DF90CF9008952D9842
:1021E000F5CF2D982E9A2C9AF3CF2D9A2E9AEFCFC9
:1021F0002D98FCCF2D98E7CF0895089581E008959C
:102200000C9495101F93CF93DF9300D000D00F92C2
:10221000CDB7DEB749835A836B832091DE01898174
:102220009A8121111BC06623A9F00E949123182FC7
:10223000682F89819A810E943D2369817A81812F4B
:102240000F900F900F900F900F90DF91CF911F91F3
:102250000C94F1120E946923182FEFCF0E94912352
:1022600069817A81EDCFFC01408151816281738166
:1022700084810C9402110E947225811102C00E9477
:102280000F260C949E150C94A01508950C944511DE
:1022900081E008950C944811CF93C82F0E944611F5
:1022A0008C2FCF910C944A1108950E947F1E0E949A
:1022B00054112FEF84E39CE0215080409040E1F7DF
:1022C00000C000000C9447270F931F93CF93DF9318
:1022D0008C010E943311EC01B8010E940011882387
:1022E000D1F0B801CE010E94BC178823A1F0F801FB
:1022F0008281882309F412C1C130FCE5DF0789F02F
:10230000CE3D8CE5D807F9F0C115ECE5DE0709F004
:102310001CC10E94551180E0DF91CF911F910F9158
:1023200008959091B302892F8E7F90FF81608093F2
:10233000B30280FF05C082E494E10E94F30FEBCF6B
:1023400080E394E1FACF0E940F26E5CF8091D50279
:102350008061C630ECE5DE0709F480C08091D502CB
:102360008860C730DC4508F479C08091D50280626E
:1023700075C0CC308CE5D80709F489C070F4809121
:10238000D5028C60CA30FCE5DF0709F467C008F4A9
:1023900078C08091D5028E7F61C08091D502877F01
:1023A000CE30ECE5DE0709F459C08091D5028B7F71
:1023B000CF30DC4508F452C08091D5028F7E4EC0EC
:1023C000CB3F8CE5D80709F454C030F5C331FCE5A8
:1023D000DF0709F46CC078F4C131ECE5DE0709F4DD
:1023E00062C0C231DC4509F0EFC00E947F1E8091BF
:1023F000D5028F7733C0C5318CE5D80709F45FC0AB
:1024000008F473C08091D6028160CA3FDC4509F0B0
:10241000DBC08093D602D8C0CF3F8CE5D80709F443
:102420004AC060F48091D6028D7FCD3FFCE5DF0786
:1024300081F388F18091D6028360EBCFC130EDE566
:10244000DE0709F45BC008F446C0C230DD4509F080
:10245000BBC080E054C08091D50281608093D502DA
:10246000B3C08091D5028260F9CF8091D50284609B
:10247000F5CF8091D6028260CCCF8091D502806466
:10248000EDCF0E947F1E8091D5028068E7CF8091BA
:10249000D5028D7FE3CF8091D6028E7FBACF809117
:1024A000D5028F7DDBCF8091D5028F7BD7CF8091F6
:1024B000D502837FD3CF8091D6028C7FAACF809123
:1024C000D50282FB992790F921E0922790FB82F9AF
:1024D00090FB83F9C3CF8091D602982F909591708D
:1024E0008E7F892B90FB81F994CF0E947F1E909163
:1024F000D502892F97FB87F98058B0CF81E00E94E1
:10250000112662C085E31CC080914C01811104C07A
:1025100089E20E94082416C085E3FBCFC631DC4562
:10252000E9F40E942624F8019281992369F38A7ABA
:1025300091E009F490E090934C018111E3CF89E29E
:102540000E9401240E947224E6CEC6318CE5D80791
:1025500041F358F4C230FCE5DF0760F4C801DF91B5
:10256000CF911F910F910C94FE10CE018A5F9C4574
:102570000997A0F70E947225811102C00E940F26C0
:102580000E9485259093D6028093D502C031FCE548
:10259000DF0709F484CF08F013CFC830ECE5DE077D
:1025A00009F46BCF08F0E5CEC4308CE5D80709F408
:1025B0005CCF08F0CBCEC230FCE5DF0709F44BCF8F
:1025C000C330DC4509F44DCF8091D5029091D602FD
:1025D0000E9493250E947F1E9ECE90E080E0089589
:1025E0000895972F70E023E1929F600D711D1124D3
:1025F000FB0191ED899FE00DF11D1124EE0FFF1FEE
:10260000E856FF4F859194910895FC01EE0FFF1F4E
:10261000ED5AFB4E859194910895CF93DF930E94DC
:10262000F1120E94C414EC01811520E5920708F014
:1026300042C0811530E4930708F014C1883E91052B
:1026400028F5803E910508F0A0C0883A910588F4ED
:10265000853A910508F08FC08130910509F495C045
:10266000009709F492C0049708F08FC0D0E0C0E052
:102670008CC08F3B910508F48CC0805C9109C03CF4
:10268000D105A0F30E940513EC017FC08115904293
:1026900050F4C11581E0D80708F077C0C03FD105DC
:1026A00028F3D06572C0C11590E3D90708F0D0C0F7
:1026B000CE019F70E7CF811525E5920758F581156A
:1026C00034E5930708F0FDC0811542E5940750F406
:1026D000C11581E5D80708F4C8C0DC2FCC27C16F2D
:1026E000D06A53C0982F969596959E0123703327F4
:1026F000C115D34508F0D6C0C1E0D0E002C0CC0F70
:10270000DD1F2A95E2F720E2929FC0011124C82B19
:10271000D92BC6C0C11589E5D807A8F4C11598E51D
:10272000D90708F0D3C0C11526E5D20708F09ECF1F
:102730008C2F0E945B15C82FD0E0DC2FCC27CC2734
:10274000DF71D06222C0C1153AE5D30708F4C3C0D7
:10275000CE0190568115904208F088CF8D2F8F7151
:102760000E945B1590E0982F882788279F719C0115
:102770002C2BE901E6CF853A910509F4BAC0863AD7
:10278000910509F0B9C0C2E8D0E4CE01DF91CF9144
:102790000895883A910509F4B2C0893A910509F47F
:1027A000B1C08A3A910509F4B0C08B3A910509F499
:1027B000AFC08C3A910509F4AEC08B3B910509F48A
:1027C000ADC08C3B910509F4ACC08D3A910509F47C
:1027D000ABC0803B910509F4AAC08E3A910509F47B
:1027E000A9C08F3A910509F4A8C0813B910509F46D
:1027F000A7C0823B910509F4A6C0833B910509F46B
:10280000A5C0843B910509F4A4C0853B910509F45A
:10281000A3C0863B910509F4A2C0873B910509F44A
:10282000A1C0883B910509F4A0C0893B910509F43A
:102830009FC08D3B910509F49EC08E3B910509F424
:102840009DC08A3B910509F49CC0C0E0D4E49DCFB3
:10285000CE019927D3FF03C0EC01D86C96CFEC01D1
:10286000D06C93CFDF70D06A90CFCE01E4E0969524
:102870008795EA95E1F783702C2F2695269523708E
:1028800090E2299F90011124382B8C2F8370C1E096
:10289000D0E002C0CC0FDD1F8A95E2F7C22BD32B0C
:1028A000DC6873CFC1E0D0E002C0CC0FDD1F2A95F9
:1028B000E2F730E2939FC0011124C82BD92BDA68CC
:1028C00064CFD82FCC27C46FD06A5FCFDC2FCC2742
:1028D000C06FD06A5ACF8C2F8F700E945B1534E086
:1028E000D695C7953A95E1F7CF709C2FEC01D0694A
:1028F0004CCFC1E8D0E449CFC3E8D0E446CFC2EE24
:10290000D4E443CFC9EED4E440CFCAEED4E43DCF03
:10291000C5EBD4E43ACFC6EBD4E437CFC3EBD4E471
:1029200034CFC4EBD4E431CFC7EBD4E42ECFCCEC1E
:10293000D4E42BCFCDECD4E428CFC3E8D5E425CF25
:10294000CAE8D5E422CFC2E9D5E41FCFC4E9D5E473
:102950001CCFC1E2D6E419CFC3E2D6E416CFC4E25D
:10296000D6E413CFC5E2D6E410CFC6E2D6E40DCF4D
:10297000C7E2D6E40ACFCFE6D4E407CFC0E7D4E479
:1029800004CFCAE2D6E401CF82389105B1F1B0F4A8
:102990008133910509F475C048F48932910509F431
:1029A00069C08A32910509F473C008958533910591
:1029B00009F459C08933910501F10895833E9105C9
:1029C000A9F138F4803E9105F9F0823E910549F174
:1029D0000895863E9105A9F1873E9105C9F1843E8F
:1029E000910519F52091D60221FF1FC08091D502D3
:1029F00084FD14C087EE90E008952091D5022370E5
:102A0000A1F080EE90E008952091D50220FD47C00E
:102A10003091D60230FF09C024FF44C090E080E02E
:102A200004C02091D50222FDF7CF08952091D50250
:102A300022FD3BC03091D60230FDE3CF24FFF5CF1D
:102A4000EDCF2091D50223FFF0CF24FDE7CFD2CFE9
:102A50002091D50223FD2CC03091D60231FFEECF5C
:102A600084EE90E008952091D50225FFDECF89E223
:102A700090E008952091D50225FFD7CF85E390E01F
:102A800008952091D50226FFD0CF8AE290E00895E4
:102A90002091D50226FFC9CF81E390E0089589E314
:102AA00090E0089583EE90E0089582EE90E008951E
:102AB00086EE90E008959091D50292FF06C0282FEF
:102AC00028712830F9F4877F846093FF06C0282F8F
:102AD00028712831F1F4877E84612091D60220FF8D
:102AE00006C0382F38713830D9F4877F816021FFD4
:102AF00006C0282F28712831D1F4877E816194FD8A
:102B0000877E0895282F24712430F9F68B7F886002
:102B1000DCCF282F2471243101F78B7E8861DDCF33
:102B2000382F3171313019F78E7F8860E0CF282F30
:102B30002171213121F78E7E8861E1CF0C94FC1048
:102B40000C94FD1094E0899FF0011124E35BFE4F8B
:102B500060817181828193810895CF92DF92EF929B
:102B6000FF920F931F93CF93DF9384E694E10E942B
:102B7000F30F8DE4E82E81E0F82ED0E0C0E09FE571
:102B8000C92E94E1D92E05E514E1DF93CF93DF92AE
:102B9000CF920E948C108CE594E10E94F30FF70114
:102BA00061917191819191917F010E944C259F9338
:102BB0008F937F936F931F930F930E948C1083E5E5
:102BC00094E10E94F30F21968DB79EB70A960FB637
:102BD000F8949EBF0FBE8DBFCB30D105B1F6DF910B
:102BE000CF911F910F91FF90EF90DF90CF900895BC
:102BF000A6E2B1E061E070E08D91E82FE295EF7020
:102C0000F0E041A18F709B0101C0220F8A95EAF785
:102C1000922F9095942391A382A1822B82A381E08D
:102C2000A133B80749F7A3E1B1E061E070E08D910D
:102C3000E82FE295EF70F0E041A18F709B0101C099
:102C4000220F8A95EAF7922F9095942391A382A15F
:102C5000822B82A381E0A632B80749F7E9E7F1E0C9
:102C6000ADE4B1E085EA91E01192119211921192D6
:102C70001D921D921D921D928E179F07A9F78BE042
:102C80000E9413170C943B112F923F924F925F9228
:102C90006F927F928F929F92AF92BF92CF92DF926C
:102CA000EF92FF920F931F93CF93DF93CDB7DEB7D1
:102CB00028970FB6F894DEBF0FBECDBF29E731E0ED
:102CC00038872F8366E271E010E0AF81B885CD9040
:102CD000DD90ED90FC901397FD01119211921192ED
:102CE0001192F887EF83DB018D91BD01E82FE2950A
:102CF000EF70F0E091A18F7022242394312C01C059
:102D0000220C8A95EAF7892F822981A382A1022DBC
:102D10000095802382A3B0EABA95F1F723E131E070
:102D20003C832B8390E080E04F81588544505109CB
:102D30005E834D83AB81BC816D90BC83AB83262DBC
:102D400022952F7030E0D90190962C91AD81BE81F3
:102D50008D909D90AD90BC9030E0B62DBF7002C0BC
:102D600035952795BA95E2F720FD59C021E030E06E
:102D700040E050E0082E04C0220F331F441F551FAF
:102D80000A94D2F729013A0184289528A628B72861
:102D9000AD81BE818D929D92AD92BC9213970196AA
:102DA0008331910539F681A1082301A382A18229EB
:102DB00082A381E08D909D90AD90BC908C149D0479
:102DC000AE04BF0409F480E0182BEF81F885E55AC2
:102DD000F14009F07ACF212F4BE06DE471E089E7F3
:102DE00091E00E9414170E944311812F28960FB67C
:102DF000F894DEBF0FBECDBFDF91CF911F910F9131
:102E0000FF90EF90DF90CF90BF90AF909F908F900A
:102E10007F906F905F904F903F902F900895412C3E
:102E2000512C3201B1CF0895FF920F931F93CF938E
:102E3000DF93F82ED92F8B01C42F222349F081E094
:102E40008093A7010E94E1269093A6018093A5019B
:102E50008091A701882399F08091A5019091A60106
:102E60000E94F926069758F0EF2DFD2FD80190E02B
:102E700080E0D0E08C179D0744F01092A701DF910D
:102E8000CF911F910F91FF90089501911191219180
:102E900031910D931D932D933D930196EBCF0F939D
:102EA0001F93CF93DF93C62FD42F022FFC01828173
:102EB0008823C9F06093AA010E94E1269093A9019A
:102EC0008093A80180E28C0F883008F050C0C77052
:102ED00081E001C0880FCA95EAF7DF91CF911F9179
:102EE0000F910C94E51B1091AA01161335C0809127
:102EF000A8019091A9010E94F926883C910560F5EE
:102F0000C0E2CD0F1D17B9F080E2810F883040F488
:102F1000177081E001C0880F1A95EAF70E94EC1B38
:102F2000C83048F481E09D2F977001C0880F9A95B2
:102F3000EAF70E94E51B802F0E94D21BC830B8F42C
:102F4000D77081E001C0880FDA95EAF7DF91CF9161
:102F50001F910F910C94EC1B80E28C0F883038F499
:102F6000C77081E001C0880FCA95EAF7EFCFDF9103
:102F7000CF911F910F9108959C01CB01233F4CE508
:102F8000340731F190F4283DFCE53F07E9F0293D95
:102F90004CE5340769F1273D3C4579F426E241EEE2
:102FA00061EE0E944F1780E00895253FFCE53F0742
:102FB000B9F090F0263F3C45B9F0FC0182818823AE
:102FC000D1F01092AA01089527E245EE65EEE9CF0F
:102FD00026E241EE60EEE5CF27E245EE64EEE1CF7A
:102FE00026E241EE62EEDDCF27E245EE66EED9CF76
:102FF00028E241E0EBCF81E008959093B001809307
:10300000AF010895E091AF01F091B001309721F048
:103010000190F081E02D099480E00895EF92FF92F5
:103020000F931F93CF93DF938C01E091AF01F09149
:10303000B0013097C1F10280F381E02D09958091B4
:10304000B30282FF30C080FF04C083E994E10E9494
:10305000F30FD0E0C0E08DE8E82E84E1F82E8091F7
:10306000B30280FF0EC0F801EC0FFD1F80811F929C
:103070008F93FF92EF920E948C100F900F900F9001
:103080000F902196C830D10551F78091B30280FF8F
:103090000AC08BE894E1DF91CF911F910F91FF90CF
:1030A000EF900C94F30FDF91CF911F910F91FF9050
:1030B000EF900895E091AF01F091B001309739F0B1
:1030C00022E0DC012C930480F581E02D0994089521
:1030D0002091AD013091AE012817390771F090931E
:1030E000AE018093AD01E091AF01F091B001309756
:1030F00021F00680F781E02D099408952091AB011D
:103100003091AC012817390771F09093AC0180938E
:10311000AB01E091AF01F091B001309721F0008454
:10312000F185E02D0994089585B7806885BF85B73E
:10313000806885BF089508950C94CB1008950C9471
:103140009E180E9494180E949B180C949C1881E071
:1031500008950E94D8260E94F8150E946B270C94AF
:103160009F18CF93C82F8091B30282FF1EC080FFAB
:103170001CC08CEA94E10E94F30F8091B30280FF9F
:1031800014C01F92CF9387EA94E19F938F930E947C
:103190008C108091B3020F900F900F900F9080FFD2
:1031A00004C085EA94E10E94F30F8C2FCF910C9418
:1031B0004C112F923F924F925F926F927F928F921B
:1031C0009F92AF92BF92CF92DF92EF92FF920F93B6
:1031D0001F93CF93DF93CDB7DEB76C970FB6F894FC
:1031E000DEBF0FBECDBF0E9444160E94A7188823E1
:1031F00009F436C142EB51E05C8B4B8B68E970E01F
:103200007E876D87312C212C10E0812F0E94A21522
:103210006B017C01EB89FC8981919191A191B19124
:10322000FC8BEB8B8F87988BA98BBA8B8C159D05AC
:10323000AE05BF0509F407C1ED85FE8590E080E08D
:10324000812C912C540124912223D1F041E050E0B3
:10325000082E02C0440F551F0A94E2F7052E000CF9
:10326000660B770B2601370144225522662277220E
:1032700045284628472821F0842A952AA62AB72AD5
:103280000196329683319105F1F6D501C40101977B
:10329000A109B10988219921AA21BB21892B8A2B57
:1032A0008B2B81F048E950E05C874B8700E01013DE
:1032B00082C00F5F6B857C856A5D7F4F7C876B87E3
:1032C0000B30A9F78091B30281FD0E94AD1590E00B
:1032D00080E04F85588969897A894C255D256E255E
:1032E0007F254A015B01082E04C0B694A7949794E9
:1032F00087940A94D2F780FEC4C08E831F83812CEA
:10330000912C5401839404C0880C991CAA1CBB1CEA
:103310008A95D2F7C820D920EA20FB2081E0CD2869
:10332000CE28CF2809F480E088870E94E1268160BA
:10333000782F9A8789874E815F8168858A850E9468
:10334000601AF101EE0FFF1FEE0FFF1FEE54FE4F4C
:1033500080819181A281B38188259925AA25BB25E9
:1033600080839183A283B3830E947A290E940218EA
:103370009091B101891709F48AC00E9402188093C4
:10338000B1016C960FB6F894DEBF0FBECDBFDF91D2
:10339000CF911F910F91FF90EF90DF90CF90BF9052
:1033A000AF909F908F907F906F905F904F903F90E5
:1033B0002F900C94B118802F0E94A2152B013C0174
:1033C000EB85FC8530E020E080E090E0DC0144917A
:1033D000442301F141E050E0022E02C0440F551F8A
:1033E0000A94E2F7052E000C660B770B498F5A8F73
:1033F0006B8F7C8F4421552166217721452B462BED
:10340000472B41F0498D5A8D6B8D7C8D842B952BEC
:10341000A62BB72B2F5F3F4F329623313105B9F6DC
:1034200088219921AA21BB21AC01BD01415051093C
:103430006109710984239523A623B723892B8A2B3D
:103440008B2B09F436CF1F5F5FEF251A350A6D8588
:103450007E856A5D7F4F7E876D871B3009F0D5CEF4
:103460008FEF89838A831B820E94E1268160782FF7
:103470009D838C8349815A816B818D810E94601A62
:1034800073CF01968331910509F02BCFDCCF6C9679
:103490000FB6F894DEBF0FBECDBFDF91CF911F9165
:1034A0000F91FF90EF90DF90CF90BF90AF909F90E3
:1034B0008F907F906F905F904F903F902F900895E6
:1034C000CF93DF93CDB7DEB72B970FB6F894DEBF5F
:1034D0000FBECDBF4F83588769877A878B871E823F
:1034E0001D8285E0FE013796DE01119601900D9256
:1034F0008A95E1F749815A816B817C818D819E811A
:103500002B960FB6F894DEBF0FBECDBFDF91CF91E3
:103510000C941F21FC01808191810C94D323CF93C3
:10352000C82F882309F4E6C08238C1F40E9402182B
:1035300081FDE0C089E30E9401240E9472242FEFE4
:1035400081EE94E0215080409040E1F700C00000FF
:1035500089E30E940824CF910C9472248338A1F44B
:103560000E94021880FDC6C083E50E9401240E94CB
:1035700072242FEF81EE94E0215080409040E1F7DB
:1035800000C0000083E5E5CF8438A1F40E94021852
:1035900082FDB0C087E40E9401240E9472242FEFB4
:1035A00081EE94E0215080409040E1F700C000009F
:1035B00087E4CFCF8CEF8C0F813A48F48C2F0E9498
:1035C000F32D811197C08C2F0E940124C4CF80E27B
:1035D0008C0F883048F4C77081E001C0880FCA950D
:1035E000EAF70E942924B7CF8BE58C0F833068F46B
:1035F00081E890E0C53A31F083E890E0C63A11F4F2
:1036000082E890E0CF910C94681888E58C0F8731A0
:1036100008F068C082EE90E0C83A09F460C089EE14
:1036200090E0C93A09F45BC08AEE90E0CA3A09F426
:1036300056C085EB90E0CB3A09F451C086EB90E0A0
:10364000CC3A09F44CC083EB90E0CB3B09F447C083
:1036500084EB90E0CC3B09F442C087EB90E0CD3A9C
:10366000F1F18CEC90E0C03BD1F18DEC90E0CE3AE2
:10367000B1F183E891E0CF3A91F18AE891E0C13B62
:1036800071F182E991E0C23B51F184E991E0C33BE1
:1036900031F181E292E0C43B11F183E292E0C53B5B
:1036A000F1F084E292E0C63BD1F085E292E0C73BC4
:1036B000B1F086E292E0C83B91F087E292E0C93B2C
:1036C00071F08FE690E0CD3B51F080E790E0CE3B8B
:1036D00031F090E080E0CA3B11F48AE292E0CF91B1
:1036E0000C947E18C03F30F08C2F0E940628CF919A
:1036F0000C94ED28CF910895882309F452C08238A4
:1037000071F40E94021881FF4CC089E30E940124D9
:103710000E94722489E30E9408240C947224833846
:1037200059F40E94021880FF3CC083E50E940124E6
:103730000E94722483E5EFCF843859F40E94021866
:1037400082FF2FC087E40E9401240E94722487E434
:10375000E2CF9CEF980F913AF0F290E2980F9830F8
:1037600050F4877091E001C0990F8A95EAF7892F8C
:103770000E942F24D2CF9BE5980F933020F490E045
:1037800080E00C94681898E5980F973120F490E049
:1037900080E00C947E18803F20F00E946E280C94EC
:1037A000ED280895CF93C82F0E948F1AC93349F48A
:1037B0002FEF87EE93E0215080409040E1F700C06A
:1037C00000008C2FCF910C947C1B882321F00E9449
:1037D00029240C9472240895882321F00E942F2418
:1037E0000C9472240895BF92CF92DF92EF92FF92D1
:1037F0000F931F93CF93DF936C01D62FC72FFC013C
:10380000058102950F70128111110E9446240E94B9
:103810001F24E82E882371F01123B1F080E28D0F70
:10382000883090F082E00E94BD240E941F2491E025
:10383000E82EE926BC2EB2949FE0B922EB2DF0E0F1
:10384000E457F84C0C942237E12CF4CF0C2F0F7076
:10385000C07F11F00295007F1123A9F0002359F0D9
:1038600080E28D0F883010F0D11109C0802F0E94A6
:1038700029240E9472248D2F0E948F1A14C0802F39
:103880000E943924F6CF8D2F0E947C1B002359F013
:1038900080E28D0F883010F0D1112CC0802F0E9453
:1038A0002F240E9472242B2D2850330B24303105F5
:1038B00020F40E9402180E944C11EE2009F4D5C198
:1038C0000E941B2480FDD1C1F60112820E941524A2
:1038D0000E94A122C6010E943F1E0E941524DF9172
:1038E000CF911F910F91FF90EF90DF90CF90BF90FD
:1038F0000C94C222802F0E943F24D3CFFC2FFF7054
:10390000FF2EC07FC03219F0F29480EFF822DD2341
:1039100069F0D13049F1112391F1002351F1F60101
:10392000858180FFA8CF8F70858323C0112381F00C
:10393000011106C00E9459248F290E94E51BB3CFB4
:103940000130C1F70E9459248F290E945F24ABCF18
:10395000011106C00E9468248F2D0E94EC1BA3CF8A
:10396000013009F4A0CFF6CF112329F0063008F07A
:103970009ACF8F2DE2CF053008F095CFEDCF002301
:1039800059F3D93349F4FFEF27EE33E0F1502040EB
:103990003040E1F700C000008D2F0E947C1B83CFD8
:1039A0008C2F86958695837069F0813009F07BCFE6
:1039B0008D2F9C2F9370111102C090E080E00E9427
:1039C0007E1871CF8D2F9C2F9370111102C090E043
:1039D00080E00E94681867CF112309F1D53F99F064
:1039E000D63FB9F0D43F49F48091CF029091D002F4
:1039F00081609093D0028093CF028D2F0E94062881
:103A00000E94ED2850CF8091CF029091D002826029
:103A1000F0CF8091CF029091D0028460EACFD53F61
:103A200089F0D63FA9F0D43F49F48091CF0290911C
:103A3000D0028E7F9093D0028093CF028D2F0E9470
:103A40006E28DECF8091CF029091D0028D7FF2CF91
:103A50008091CF029091D0028B7FECCF8C2F83701E
:103A600009F041C011111FCF4D2F42954695477067
:103A7000440F440F0D2F0F7010E030E020E0042EB3
:103A800004C0000F111F221F331F0A94D2F760E0F9
:103A900070E0CB01D4FF0FC06FE070E080E090E0F9
:103AA00004C0660F771F881F991F4A95D2F760954B
:103AB000709580959095C695C695C370602B712BB7
:103AC000822B932BC23049F058F4C13019F00E9478
:103AD0005522E9CE0E944322E6CE0E946722E3CE21
:103AE0000E944122E0CE8695112311F08C2F817027
:103AF000882309F4D8CE4D2F429546954770440F40
:103B0000440F0D2F0F7010E030E020E0042E04C0B1
:103B1000000F111F221F331F0A94D2F760E070E0DC
:103B2000CB01D4FF0FC06FE070E080E090E004C0F4
:103B3000660F771F881F991F4A95D2F76095709579
:103B400080959095C695C695C370602B712B822B7E
:103B5000932BC23049F058F4C13019F00E94182359
:103B6000A2CE0E9406239FCE0E942A239CCE0E94B2
:103B70007B2299CECF70112329F08C2F0E94A12295
:103B80008D2FDBCE8D2F0E94EC1B8C2F0E94C2222A
:103B90008ACED23F89F160F4D03FC9F0D13F29F1FC
:103BA000112309F442C0011166CE8C2F8F7121C000
:103BB000D33F39F1D43FA1F7112369F1CF718C2F95
:103BC0000E94A12263E08C2F0E94A8246CCE1123B6
:103BD00041F0053008F067CE8C2F8F710E94E522EE
:103BE00062CE063008F05FCEF7CF8C2F8F71112395
:103BF00069F20E94A12257CE8C2F8F711123C9F335
:103C0000C5CF112329F08C2F8F710E948C224BCEAF
:103C10000E94872248CE81E00E94BD24023008F431
:103C200042CE82E00E94BD243ECE002359F0D9331B
:103C300009F0B2CE8FEF97EEE3E081509040E04084
:103C4000E1F7A8CE8C2F8F71A1CF4C2F4F706D2F25
:103C5000C6010E94ED120E94B92125CE4C2F4F7053
:103C60006D2FC6010E94F0121ECEDF91CF911F91E1
:103C70000F91FF90EF90DF90CF90BF9008950F933A
:103C80001F93CF93DF93EC018B819C81892B29F0CB
:103C90008881998189238F3F29F4DF91CF911F91EA
:103CA0000F910895CE010E9464118823B1F36881B9
:103CB00079818A810E94DD238C010E943C230E942D
:103CC0004022B801CE01DF91CF911F910F910C944A
:103CD000F31B0E9446240E9456240E9472240E94D4
:103CE000112A0E94ED2890E080E00E94681890E080
:103CF00080E00C947E180E940F240C94691E0E9490
:103D000036240C947B1EE92FE295EF70E250EE30E2
:103D100070F4F0E0E456F84C0C942237803F19F030
:103D200020F4883E20F481E00895843FE1F380E0B0
:103D30000895883EC0F3813FD1F7F5CF93FB8827E4
:103D400080F908950E94D3230C94831ECF93DF93B0
:103D500000D000D00F92CDB7DEB70F900F900F902C
:103D60000F900F90DF91CF910895CF93DF9300D004
:103D700000D000D0CDB7DEB726960FB6F894DEBFE0
:103D80000FBECDBFDF91CF9108951F93CF93DF93E7
:103D9000C091DF0116E08091E0018C1304C0DF9137
:103DA000CF911F910895D0E01C9FF0011D9FF00D51
:103DB0001124EF51FE4F40815181628173818481D2
:103DC00095810E94B51E2196C770E5CF40911102E2
:103DD00050911202609113027091140280911502A9
:103DE000909116020C94B51E1F93CF93DF93809190
:103DF0001602807FC1F4809113028823A1F0809184
:103E0000DF01C091E00160911102709112024091B6
:103E1000140250911502D62FD723DA01A095B09540
:103E200016E0C81304C0DF91CF911F91089590E070
:103E30004115510511F0DF3F31F401968770F1CF44
:103E40002A0F3B1F17C0189FF001199FF00D112476
:103E5000EF51FE4F21812713F0CF20812613EDCFA4
:103E600022812111EACF238134812417350740F3C1
:103E7000241B350B283C310500F7209116022F70CA
:103E800020612093160226E0289FF001299FF00D63
:103E90001124EA51FE4F80818F708061808381E11F
:103EA00092E00E943F1EDF91CF911F910C94C51E9E
:103EB000BF92CF92DF92EF92FF920F931F93CF9317
:103EC000DF93CDB7DEB761970FB6F894DEBF0FBEB4
:103ED000CDBF8C0185E0F801DE011D9601900D92A9
:103EE0008A95E1F7D8014C9111965C911197129641
:103EF000EC9012978091140290911502009709F4AA
:103F00007FC12091110230911202622F63236F3F13
:103F100009F476C11396CD90DC90B0901302BB20CB
:103F200009F411C1C816D906D0F1F601E81BF90B46
:103F3000CF01FF24F394883C910508F0F12C809187
:103F40001602982F907FFF2009F4B8C091117FC00E
:103F5000FE2C351329C0241327C0E11025C08F7013
:103F60008061809316020E94E61E81E192E00E9429
:103F70003F1E80911602D80115968C938F2D619665
:103F80000FB6F894DEBF0FBECDBFDF91CF911F916A
:103F90000F91FF90EF90DF90CF90BF9008958095A4
:103FA00090958C0D9D1DC5CFCD2829F0852F84239C
:103FB0008F3F09F041C180E0B82FB170DB2E80FF48
:103FC0003CC08091DF012091E00136E0821315C0F2
:103FD0004D875E878D859E850E94D323292F22954C
:103FE0002F702230F0F0243018F59F70F1F0F801B6
:103FF0009581907FD1F4D12C1EC090E0389FF001C4
:10400000399FF00D1124EF51FE4F6181651306C0F9
:104010006081641303C06281E6120FC0019687704D
:10402000D5CF9F7011F0882331F3805E883018F36C
:10403000C8010E943F1EFD2CA1CFEE2009F49ECFA7
:1040400080911602816080931602F12C97CF351370
:1040500006C0241304C0D801EE2009F49AC04D878D
:104060005E878D859E850E94A21E882319F1EE2011
:1040700009F180911602803270F020911102309186
:10408000120238872F831986DB86CA868C87CE0179
:1040900007960E943F1E86E0F801A1E1B2E0019080
:1040A0000D928A95E1F70E94F41E0E94E61EFF24FD
:1040B000F39464CFC8010E943F1EF9CF911113C041
:1040C0007C2DD98AC88A6E2D89890E94A61E81E11D
:1040D00092E00E943F1E86E0E1E1F2E0DF011D92E6
:1040E0008A95E9F763C0351312C0241310C0E1109C
:1040F0000EC0F8018583C8010E943F1EE1E1F2E095
:1041000086E0DF011D928A95E9F7FB2C37CF4D87BA
:104110005E878D859E850E94A21E882359F2EE201F
:1041200049F280911602803208F4B5CF2091110235
:10413000309112023A8329831B82DD82CC828E83E6
:10414000CE010196A6CFC816D90698F1F601E81B54
:10415000F90BCF01F12C883C910508F049C0FE2CE9
:10416000EE2009F4A7CF351332C0241330C080915C
:10417000160280FD23C0982F907F01F1D80115967B
:104180008C931597903F39F0982F907F905F8F70A8
:10419000892B15968C93C8010E943F1E86E0F8017A
:1041A000A1E1B2E001900D928A95E1F70E94E61E2E
:1041B000E5CE809590958C0D9D1DCCCF86E0F801C5
:1041C000A1E1B2E001900D928A95E1F7D7CE4D873B
:1041D0005E878D859E850E94A21E81115CCF809195
:1041E0001602816080931602C8010E943F1EC6CE4F
:1041F0007C2DD98AC88A6E2D89890E94A61E6BCF14
:10420000EE2009F457CF4D875E878D859E850E94ED
:10421000A21EF82E882309F44DCF86E0F801A1E113
:10422000B2E001900D928A95E1F781E192E00E945F
:104230008A1A0E94F41EBACF81E08E25BDCE1F934C
:10424000CF93DF93CDB7DEB72C970FB6F894DEBFD0
:104250000FBECDBF4F83588769877A878B879C872E
:10426000CE0107960E94581F882369F08A859B8596
:10427000892B39F04F815885842F85238F3F09F092
:1042800071C016E05FC086E0FE013796DE01119630
:1042900001900D928A95E1F78A859B85892B89F398
:1042A00088859F8189238F3F61F32091E00130E071
:1042B000C9010196877099274091DF0148171906B7
:1042C00071F40E947F1E1092E0011092DF0186E0DF
:1042D000E1E1F2E0DF011D928A95E9F7D2CF96E0A5
:1042E000929FD001939FB00D1124AF51BE4FFE019C
:1042F000319601900D929A95E1F78093E0010E942A
:10430000C51EBFCF819FC00111248F519E4F0E94B7
:10431000581F8823E9F0E091DF011E9FF00111246E
:10432000EF51FE4F4081518162817381848195817B
:104330000E94B51E8091DF0190E001968770992759
:104340008093DF018091DF019091E0018913DACF42
:104350002C960FB6F894DEBF0FBECDBFDF91CF9184
:104360001F91089569857A858B859C850E94B51E6D
:1043700088CFEF92FF920F931F93CF93DF938C011F
:10438000892B81F0F12CEE24E394E8012196F801C9
:104390008491843770F4843008F05FC08130B1F0CC
:1043A0008230A1F1DF91CF911F910F91FF90EF909B
:1043B0000895853709F44CC008F43DC09CE7980F78
:1043C000903780F78F770E947C1B49C00E5F1F4F8C
:1043D000FE01849190E2980F983060F48770FE2D72
:1043E00001C0FF0F8A95EAF78F2F0E9449240E948F
:1043F000722402C00E948F1A8F2D815030F2EFE993
:10440000FFE03197F1F700C00000F7CF0E5F1F4FBC
:10441000FE01849190E2980F983050F48770FE2D41
:1044200001C0FF0F8A95EAF78F2F0E944F24DFCF3C
:104430000E947C1BE1CF0E5F1F4FFE01C491C15053
:10444000D8F28FE99FE00197F1F700C00000F7CFA5
:104450000E5F1F4FFE01F490CFCF0E948F1A8E0186
:10446000CBCF08950C9431220E9432226093A20295
:104470007093A3028093A4029093A5020C94691EEA
:1044800008950C9434220F931F930091A20210916F
:10449000A3022091A4023091A502602B712B822BE4
:1044A000932B1F910F910C9434220F931F93009123
:1044B000A2021091A3022091A4023091A5026023D0
:1044C0007123822393231F910F910C9434220F9315
:1044D0001F930091A2021091A3022091A402309197
:1044E000A50260277127822793271F910F910C94B3
:1044F00034220C94D2100E94792260939E02709311
:104500009F028093A0029093A1020C94691E60E028
:1045100070E0CB010C947B220F931F9341E050E09D
:1045200060E070E08A019B0104C0000F111F221F90
:10453000331F8A95D2F7C901B8011F910F910C94CE
:104540007B220F931F9341E050E060E070E004C0D5
:10455000440F551F661F771F8A95D2F780919E02E0
:1045600090919F02A091A002B091A1028A019B01AB
:10457000082B192B2A2B3B2BC901B8011F910F9136
:104580000C947B220F931F9341E050E060E070E0B9
:1045900004C0440F551F661F771F8A95D2F7CB01C1
:1045A000BA01609570958095909500919E0210914A
:1045B0009F022091A0023091A102602371238223E7
:1045C00093231F910F910C947B220F931F9341E033
:1045D00050E060E070E004C0440F551F661F771F75
:1045E0008A95D2F780919E0290919F02A091A0029D
:1045F000B091A1028A019B01082719272A273B278E
:10460000C901B8011F910F910C947B220F931F9346
:1046100000919E0210919F022091A0023091A10270
:10462000602B712B822B932B1F910F910C947B226B
:104630000F931F9300919E0210919F022091A00260
:104640003091A10260237123822393231F910F9144
:104650000C947B220F931F9300919E0210919F0256
:104660002091A0023091A102602771278227932711
:104670001F910F910C947B22089523E1929F800D4E
:104680001124982F977041E001C0440F9A95EAF7E2
:1046900086958695869595E0899FF0011124E95EBF
:1046A000FD4F90E080E070E05191DF0111979B0198
:1046B000082E02C0369527950A94E2F721702195BD
:1046C0002527242325272C9301968530910561F712
:1046D000089523E1929F800D1124982F977086955D
:1046E0008695869525E0829FF0011124E95EFD4FB5
:1046F00050E040E080E0219130E0092E02C0369584
:1047000027950A94E2F721703327042E01C0220F67
:104710000A94EAF7822B4F5F5F4F4530510559F7F6
:104720000895BF92CF92DF92EF92FF920F931F9363
:10473000CF93DF938C01C0909E02D0909F02E090B7
:10474000A002F090A1028091A2029091A302A091F8
:10475000A402B091A502C82AD92AEA2AFB2ACFE1ED
:10476000D0E0BC2ED701C6010C2E04C0B695A7958B
:10477000979587950A94D2F780FD0EC0219788F708
:10478000B12C8B2DDF91CF911F910F91FF90EF9066
:10479000DF90CF90BF900895B8018C2F0E940D1329
:1047A000019761F3EECFCF93DF93EC010E94912349
:1047B000BE01DF91CF910C940D131F93CF93DF9324
:1047C000EB019091DE01992331F0CB01DF91CF9184
:1047D0001F910C94D323882379F0CB010E9491235D
:1047E000182F682FCE010E943D23BE01812FDF913B
:1047F000CF911F910C940D13CB010E946923182FA8
:10480000F4CF682F80910001909101010C944F2604
:10481000682F80910001909101010C9451268091A4
:104820000001909101010C9453268091A602859578
:104830008595859508958091A60287700895909139
:10484000A602977081E009F480E008958091B20299
:1048500008959091B202892B8093B20208958095B9
:104860009091B20298239093B20208951092B202EE
:1048700008959091B102892B8093B102089580959B
:104880009091B10298239093B10208951092B102D1
:1048900008959091B002892B8093B002089580957D
:1048A0009091B00298239093B00208951092B002B4
:1048B00008958091A702089508950C945C24909126
:1048C000A702981721F08093A7020C945D24089505
:1048D0008091A702882329F01092A70280E00C940F
:1048E0005D240895E0910001F09101018091B202F0
:1048F0008083E0910001F091010180819091B102EB
:10490000892B8083E0910001F091010180819091D9
:10491000B002892B80839091A702992381F0E091C6
:104920000001F09101018081892B80838091000139
:10493000909101010E94162681110E9468248091A5
:104940000001909101010C940E1808950C94A52477
:1049500098E0899F90011124622B6093A6020E9427
:10496000A1228091A6028595859585950C94A62413
:104970001092A60280E00C94A6249091A602809545
:1049800089238093A602282F277071F4282F082EE0
:10499000000C330B9217130639F085958595859594
:1049A0000E94C2220C94B824089590934B018093E6
:1049B0004A010895CF92DF92EF92FF926C01EE24AC
:1049C000FF2420E0C114D104E104F10419F0C7016F
:1049D000B60120E1C72ED82EE92EFF24C114D10440
:1049E000E104F10419F0285FC701B6016B017C01F5
:1049F00054E0F694E794D794C7945A95D1F7C1142C
:104A0000D104E104F10419F02C5FC701B6016B0178
:104A10007C0142E0F694E794D794C7944A95D1F785
:104A2000C114D104E104F10419F02E5FC701B601ED
:104A30009695879577956795672B682B692B09F075
:104A40002F5F822FFF90EF90DF90CF900895829597
:104A500090E09C01220F331F220F331F2C7C959571
:104A60008795959587958373282B30E0C901880F2A
:104A7000991F8A7A359527952575822B0895CF93AE
:104A8000DF93D92F0E942725C82F8D2F0E9427251D
:104A90009C2FDF91CF910895CF92DF92EF92FF92FA
:104AA0000F931F93CF93DF937C01CB010E943F258F
:104AB000EC01C7010E943F258C01BE0190E080E01F
:104AC000CB017727662730E020E0602B712B822B0B
:104AD000932BDF91CF911F910F91FF90EF90DF907B
:104AE000CF90089590E080E00E94473721E08C3E0F
:104AF0009E4F09F020E0822F089582E090E00C9410
:104B00003F3783E090E00C943F37CF9384E090E010
:104B10000E943F37C82F81E290E00E943F37982FD4
:104B20008C2FCF910895CF93C92F682F84E090E008
:104B30000E944D376C2F81E290E0CF910C944D375D
:104B4000AB01BC018FE090E00C945F37AB01BC017E
:104B500083E190E00C945F3760E070E0CB010C944F
:104B6000A62560E070E0CB010E94A0250C94AC2546
:104B70006CEE7EEF90E080E00E946B3760E082E0B8
:104B800090E00E944D3760E083E090E00E944D3756
:104B90001092A2021092A3021092A4021092A502F7
:104BA00060E084E090E00E944D3760E081E290E0B8
:104BB0000E944D3760E085E090E00E944D3760E054
:104BC00086E090E00E944D376FEF87E090E00E9412
:104BD0004D3740E050E0BA0188E090E00E945F3736
:104BE00060E08DE090E00E944D3740E050E0BA0177
:104BF00088E190E00E945F3760E087E190E00E94EA
:104C00004D3740E050E0BA018CE190E00E945F3700
:104C100060E080E290E00E944D370C94B1250C9446
:104C2000B825682F8EE090E00C944D379C012E5FE4
:104C30003F4FAC01485F5F4F80E02417350709F410
:104C40000895F90191919F019923B9F38F5FF5CFF1
:104C50009C01FC0132969FEF80E04191461751F094
:104C60009F3F19F4411101C0982F8F5F8630A9F73B
:104C70009F3F09F40895290F311D97FD3A95F901D9
:104C800062830895FC01329608962191261303C091
:104C9000DF0111971C92E817F907B9F708950C94F2
:104CA00028260C944226029626E0FC0111922A95B1
:104CB000E9F70895089508950C945B260E945C26F8
:104CC0008091DB02843049F11092B40288E190E0D7
:104CD00020E40FB6F894A895809360000FBE20934F
:104CE000600080E00E944C110E945C2683B7817FA7
:104CF000846083BF83B7816083BF7894889583B7CE
:104D00008E7F83BF0FB6F894A8958091600088616C
:104D100080936000109260000FBE08950895CF93B5
:104D20000E945A260E9444160E948E26C0E08C2FB4
:104D30000E94A215672B682B692B31F4CF5FCB3013
:104D4000B1F780E0CF91089581E0FCCF08950C94F5
:104D5000A6260E947F1E0E9402180E944C110C94ED
:104D6000A7261F921FB61F9211248F939F93AF9374
:104D7000BF938091B402811113C08091D1029091B0
:104D8000D202A091D302B091D4024196A11DB11DCF
:104D90008093D1029093D202A093D302B093D40215
:104DA000BF91AF919F918F911F901FBE1F9018953B
:104DB00082E084BD93E095BD9AEF97BD80936E002D
:104DC00008952FB7F8948091D1029091D202A091CA
:104DD000D302B091D4022FBF08952FB7F8946091F9
:104DE000D1027091D2028091D3029091D4022FBF50
:104DF0000895CF92DF92EF92FF920F931F932FB7F8
:104E0000F8944091D1025091D2026091D3027091F6
:104E1000D4022FBF6A017B01EE24FF248C0130E015
:104E200020E0C016D106E206F30650F0481B590BED
:104E3000CA011F910F91FF90EF90DF90CF900895DE
:104E400041505109F3CF78941F921FB61F9211243D
:104E50008F939F93AF93BF938091D1029091D20291
:104E6000A091D302B091D4020196A11DB11D8093EF
:104E7000D1029093D202A093D302B093D402BF91F7
:104E8000AF919F918F911F901FBE1F90189581E049
:104E90008093E00080E28093D8001092C9008FE1F7
:104EA0009EE40197F1F700C0000087E090EBDC0181
:104EB0008093E4029093E502A093E602B093E702A8
:104EC00088E19CE00FB6F894A895809360000FBE2F
:104ED00090936000FFCF0E947225811102C00E9452
:104EE0000F260E947D258093B3020E948525909312
:104EF000D6028093D5020E948125682F70E090E051
:104F000080E00C9441228091B80280FF12C0609131
:104F1000050185E0689FB001112475956795759529
:104F2000679560387105A8F561157105A1F1862FA7
:104F3000089581FF09C06091050185E0689FB00177
:104F4000112475956795EDCF6091050182FD0AC02A
:104F50008091B7028823D1F09091040160910501FE
:104F6000891728F085E0689FB0011124DACF869F69
:104F7000B001112485E0869F9001879F300D112498
:104F8000692F70E0C9010E940E37CBCF65E070E059
:104F9000CECF8FE7089581E008958091B80280FF19
:104FA0000CC06091030170E07595679575956795E4
:104FB0006115710549F1862F089581FF06C0609142
:104FC000030170E075956795F3CF6091030182FD51
:104FD0000BC09091B7029923A1F0609102018091DA
:104FE0000301961738F0682F70E06038710500F300
:104FF0008FE70895899FC001112470E00E940E3749
:10500000F4CF61E070E0D7CF81E00895803F31F4C4
:105010000E94832781958093BC020895813F19F4F3
:105020000E948327F8CF823F31F40E948327819525
:105030008093BB020895833F19F40E948327F8CF21
:10504000893F29F40E94CD278093BD0208958A3FAD
:1050500021F40E94CD278195F7CF8B3F31F40E9438
:10506000CD2781958093BE0208958C3F19F40E944C
:10507000CD27F8CF843F31F48091BA0281608093CC
:10508000BA020895853F21F48091BA028260F7CF79
:10509000863F21F48091BA028460F1CF873F21F4EA
:1050A0008091BA028860EBCF883F21F48091BA02E8
:1050B0008061E5CF8D3F31F48091B80281608093AB
:1050C000B80208958E3F21F48091B8028260F7CF34
:1050D0008F3FB9F78091B8028460F1CF9091BB0205
:1050E000803F41F48091BC0287FD1092BC0299235D
:1050F00071F00895813F29F48091BC021816ACF339
:10510000F6CF823F81F497FFF2CF1092BB028091DD
:10511000BC029091BD02892B9091BE02892B49F768
:105120001092B7020895833F19F4191674F3DFCF74
:10513000893F39F48091BD021816CCF61092BD0259
:10514000D6CF8A3F29F48091BD0287FFD0CFF6CF1A
:105150008B3F39F48091BE0287FFC9CF1092BE0207
:10516000C6CF8C3F29F48091BE021816BCF3BFCF86
:10517000843F31F48091BA028E7F8093BA02B7CF18
:10518000853F21F48091BA028D7FF7CF863F21F4CD
:105190008091BA028B7FF1CF873F21F48091BA02D0
:1051A000877FEBCF883F21F48091BA028F7EE5CFD5
:1051B0008D3F31F48091B8028E7F8093B80297CFF3
:1051C0008E3F21F48091B8028D7FF7CF8F3F09F099
:1051D0008ECF8091B8028B7FF0CF8091B30283FF96
:1051E0007EC086EE94E10E94F30F8091BA021F9276
:1051F0008F9381EE94E19F938F930E948C108FED9B
:1052000094E10E94F30F8091BB02282F082E000C1E
:10521000330B3F938F938CED94E19F938F930E9478
:105220008C108AED94E10E94F30F8091BC02282F2C
:10523000082E000C330B3F938F9387ED94E19F93DF
:105240008F930E948C1085ED94E10E94F30F809162
:10525000BD02282F082E000C330B3F938F9382ED55
:1052600094E19F938F930E948C1080ED94E10E94B3
:10527000F30F8091BE02282F082E000C330B3F93B2
:105280008F938DEC94E19F938F930E948C108AEC06
:1052900094E10E94F30F8091B7021F928F9387ECE5
:1052A00094E19F938F930E948C1085EC94E10E946F
:1052B000F30F8091B8021F928F9382EC94E19F9339
:1052C0008F930E948C108FEB94E10E94F30F8DB7A7
:1052D0009EB74C960FB6F8949EBF0FBE8DBF89EB5C
:1052E00092E00E945A180E94E1269093B6028093A1
:1052F000B50208951F93CF93DF938091B5029091EB
:10530000B6020E94F926AC019091B70220910601E5
:1053100030E0911106C0209107018AE0289F90019A
:1053200011244217530778F02091BB02C091BC02B0
:10533000D091BD021091BE02211109C08C2F8D2B7E
:10534000812B09F06AC0DF91CF911F9108959F3F93
:1053500019F09F5F9093B702121624F40E948327DE
:105360008093BB028091BB0287FF05C00E94832708
:1053700081958093BB021C1624F40E94832780939E
:10538000BC028091BC0287FF05C00E9483278195E3
:105390008093BC023091BB023323A1F02091BC0268
:1053A000222381F045EB3403C0011124992369F1D4
:1053B0009093BB0245EB240390011124332349F160
:1053C0003093BC021D1624F40E94CD278093BD02A9
:1053D0008091BD0287FF05C00E94CD2781958093F3
:1053E000BD02111624F40E94CD278093BE02809145
:1053F000BE0287FF05C00E94CD2781958093BE0223
:10540000DF91CF911F910C94ED2881E08093BB0236
:10541000D1CF81E08093BC02D5CF9F3F09F099CFD7
:10542000AACF86E0E9EBF2E0DF011D928A95E9F769
:105430001092B7021092B802089589E097E10E9495
:10544000F30F1F9281E08F931F9285E08F938BEB78
:1054500096E19F938F930E948C100F900F900F9066
:105460000F900F900F900895833009F445C028F4F1
:10547000813061F0823049F10895853009F46AC0C5
:1054800008F451C0863009F47CC00895809107016A
:10549000482F460F5527551F4F3F510594F4680F6D
:1054A00060930701809107011F928F9384EF95E12C
:1054B0009F938F930E948C100F900F900F900F90DE
:1054C00008958FEF80930701EDCF80910601482F5B
:1054D000460F5527551F4F3F510554F4680F6093F1
:1054E0000601809106011F928F9382EE95E1E0CF35
:1054F0008FEF80930601F5CF80910501482F460F6D
:105500005527551F4F3F510554F4680F609305010F
:10551000809105011F928F938FEC95E1C9CF8FEF9A
:1055200080930501F5CF80910401482F460F552740
:10553000551F4F3F510554F4680F6093040180914B
:1055400004011F928F938AEB95E1B2CF8FEF809386
:105550000401F5CF80910301482F460F5527551FB1
:105560004F3F510554F4680F60930301809103018C
:105570001F928F9381EA95E19BCF8FEF8093030178
:10558000F5CF80910201482F460F5527551F4F3FF9
:10559000510554F4680F60930201809102011F923B
:1055A0008F9386E895E184CF8FEF80930201F5CF4A
:1055B0008330C9F128F4813061F0823019F1089507
:1055C000853009F452C008F43FC0863009F45EC04B
:1055D000089580910701681790F4861B8093070156
:1055E000809107011F928F9387E795E19F938F9397
:1055F0000E948C100F900F900F900F9008951092B2
:105600000701EECF80910601681750F4861B809346
:105610000601809106011F928F9385E695E1E6CF02
:1056200010920601F6CF80910501681750F4861B91
:1056300080930501809105011F928F9382E595E18A
:10564000D5CF10920501F6CF80910401681750F470
:10565000861B80930401809104011F928F938DE338
:1056600095E1C4CF10920401F6CF80910301681731
:1056700050F4861B80930301809103011F928F9346
:1056800084E295E1B3CF10920301F6CF809102013D
:10569000681750F4861B80930201809102011F92CB
:1056A0008F9389E095E1A2CF10920201F6CFCF93BC
:1056B000C82F1F928F938EE098E19F938F930E9443
:1056C0008C1061E070E080E090E004C0660F771F0E
:1056D000881F991FCA95D2F70E9441220F900F9000
:1056E0000F900F90CF910C947F1ECF93DF938B314F
:1056F00009F409C208F0A0C18B3009F4C7C108F051
:105700006AC1863009F4D5C148F4853009F4A2C1D4
:1057100083ED9CE10E94F30F80E0DBC1873009F448
:10572000DBC18830A9F782E79DE10E94F30F83EC8B
:105730009CE10E94F30F0E9481251F928F9380ECC1
:105740009CE19F938F930E948C108EEB9CE10E94B2
:10575000F30F0E947D25C82F8BEA9CE10E94F30F76
:105760001F92CF9386EA9CE19F938F930E948C10A7
:1057700084EA9CE10E94F30F8AE99CE10E94F30F06
:105780008C2F81701F928F9387E99CE19F938F9359
:105790000E948C1085E99CE10E94F30F8BE89CE14C
:1057A0000E94F30FC1FB882780F91F928F9388E82E
:1057B0009CE19F938F930E948C1086E89CE10E944D
:1057C000F30F8AE79CE10E94F30FC2FB882780F960
:1057D0001F928F9387E79CE19F938F930E948C1079
:1057E00085E79CE10E94F30F8CE69CE10E94F30F99
:1057F000C3FBCC27C0F91F92CF9389E69CE19F930E
:105800008F930E948C1087E69CE10E94F30F0E9408
:105810008525EC0183E59CE10E94F30FDF93CF9394
:105820008EE49CE19F938F930E948C108CE49CE10A
:105830000E94F30F83E39CE10E94F30F8C2F817091
:105840001F928F9380E39CE19F938F930E948C1013
:105850008DB79EB780960FB6F8949EBF0FBE8DBFD2
:105860008EE29CE10E94F30F87E19CE10E94F30F1E
:10587000C1FB882780F91F928F9384E19CE19F935D
:105880008F930E948C1082E19CE10E94F30F80E0D4
:105890009CE10E94F30F8D2F81701F928F938DEFEB
:1058A0009BE19F938F930E948C108BEF9BE10E9452
:1058B000F30F89EE9BE10E94F30FD695D1701F92F2
:1058C000DF9386EE9BE19F938F930E948C1084EE72
:1058D0009BE10E94F30F82ED9BE10E94F30FC2FB5C
:1058E000882780F91F928F938FEC9BE19F938F9372
:1058F0000E948C108DEC9BE10E94F30F8BEB9BE1DF
:105900000E94F30FC3FB882780F91F928F9388EBC7
:105910009BE19F938F930E948C1086EB9BE10E94EA
:10592000F30F8CEA9BE10E94F30FC4FB882780F9F8
:105930001F928F9389EA9BE19F938F930E948C1013
:1059400087EA9BE10E94F30F85E99BE10E94F30F38
:10595000C5FB882780F91F928F9382E99BE19F9373
:105960008F930E948C1080E99BE10E94F30F84E7E3
:105970009BE10E94F30FC6FB882780F91F928F934B
:1059800081E79BE19F938F930E948C108DB79EB708
:1059900080960FB6F8949EBF0FBE8DBF8FE69BE139
:1059A0000E94F30F87E69BE10E94F30FC7FBCC2711
:1059B000C0F91F92CF9384E69BE19F938F930E943F
:1059C0008C1082E69BE10E94F30F0F900F900F90D6
:1059D0000F9081E07EC0803109F4ADC080F48E303C
:1059E00009F096CE9091B302892F8B7F92FF84604D
:1059F0008093B30282FF9CC08EEF9CE190C0863101
:105A000009F4A9C0893109F083CE89E899E10E949F
:105A1000F30F8FE499E10E94F30F80E199E10E9476
:105A2000F30F8EED98E10E94F30F88EA98E10E944F
:105A3000F30F8CE798E12CC08A32A1F1E8F48732A9
:105A400069F128F48E3108F463CE8D5128C0893273
:105A500009F05ECE0E947F1E81E49DE10E94F30F5B
:105A60009FEF23ED80E3915020408040E1F700C09C
:105A700000000E944727ADCF833468F48A3308F0D2
:105A8000A1C0853359F0883309F042CE8FEB99E1FC
:105A90000E94F30F9ECF833409F03ACE80E00E943B
:105AA000572B97CF81E69DE10E94F30F0E940F26AE
:105AB00090CF8091B302807F8093B30288E999E10F
:105AC0000E94F30F8DE59DE10E94F30F81E080932A
:105AD000C002DF91CF9108959091B302892F8E7FFC
